:100000000C9477000C9494000C9494000C9494003D
:100010000C9494000C9494000C9494000C94350669
:100020000C9494000C9494000C9494000C94940000
:100030000C9494000C9494000C9494000C949400F0
:100040000C9494000C9494000C9494000C949400E0
:100050000C949400010F15070B070B070B0F1400EE
:100060000F1400010002040D0E24040D040D0010F5
:1000700010202001010002040D0E24040D040D00C7
:100080000000000001010003050C0E1D050C040A10
:100090000010152525010100040713173807130761
:1000A000130C18000C1801010005020B0C1A020BAE
:1000B000020B00101C2830010100070B100B100070
:1000C0000000000107070D0D000001080306171EC0
:1000D00003060A0D0005050F0F01000017030603B4
:1000E0000600000000000909111600000300112499
:1000F0001FBECFE5D8E0DEBFCDBF10E0A0E6B0E088
:10010000E8ECFCE002C005900D92A436B107D9F7E7
:1001100010E0A4E6B0E001C01D92A839B107E1F7F4
:100120000E9411020C9462060C940000C698BE98BE
:100130000895FC0180918300882309F4A8C0809170
:100140008400873009F479C0883030F4823091F12E
:10015000833009F07BC007C0813109F45AC0873170
:1001600009F074C056C020918700309188008091BA
:10017000870090918800232F332780959095907069
:100180002817390709F080C0809187009091880076
:100190009070909388008093870020918700309121
:1001A00088008091890090918A00982F8827822B5F
:1001B000932B2AC02091870030918800809187007E
:1001C00090918800232F3327809590959070281761
:1001D0003907A9F080918500909186008E5E97483E
:1001E00009F052C08BE08093840080918700909149
:1001F0008800892F992790938600809385008091AD
:100200008700909188009070909388008093870079
:100210001DC08091870090918800209187003091C7
:10022000880096958795822780FF2EC08091870051
:100230009091880096958795E7CF80918500909161
:1002400086008F7D90938600809385008091840046
:100250008083809185009091860092838183809134
:100260008700909188009483838380918B0085839D
:1002700010928800109287001092860010928500DC
:1002800010928B0081E001C080E0109283000895FD
:10029000F82F6091710070917B00671738F18091A1
:1002A0007C00681718F5809181002F2F30E0409175
:1002B0008C0050918D00882381F0862F90E0871B61
:1002C000910902C0220F331F8A95E2F7422B532B6C
:1002D00050938D0040938C0069C0440F551F242B10
:1002E000352B30938D0020938C0060C070917D0081
:1002F000671718F180917E006817F8F480918100EB
:100300002F2F30E040918E0050918F00882381F094
:10031000862F90E0871B910902C0220F331F8A9518
:10032000E2F7422B532B50938F0040938E003EC038
:10033000440F551F242B352B35C08091720083301C
:10034000D1F4613198F1653188F58F2F90E0262F37
:1003500030E02151304002C0880F991F2A95E2F702
:100360002091900030919100282B392B30939100EF
:10037000209390001BC08530C9F46431B8F0683117
:10038000A8F48F2F90E0262F30E02850304002C094
:10039000880F991F2A95E2F720918E0030918F00E7
:1003A000282B392B30938F0020938E008091720080
:1003B000853051F5603340F5262F30E0E62FE69585
:1003C000E695E695FF2381F0F0E0EE56FF4F2770AB
:1003D000307081E090E002C0880F991F2A95E2F703
:1003E0002081282B208310C0F0E0EE56FF4F2770AD
:1003F000307081E090E002C0880F991F2A95E2F7E3
:1004000080952081822380836F5F609371000895BF
:1004100086ED93E09BBD8ABD89E08EBD80E189BFFA
:100420000895CF92DF92EF92FF920F931F93DF9385
:10043000CF9300D000D000D0CDB7DEB78FEF81BB17
:100440008ABB80EF8BBBC698BE9886ED93E09BBDC0
:100450008ABD89E08EBD80E189BF7894B7E7CB2E55
:100460007E010894E11CF11CDD24DA9400E711E020
:10047000C2BAC7010E9499008823D1F3D2BA88E892
:1004800093E1F8013197F1F70197D9F7F1CF96B3DE
:1004900080918300882309F0E5C3907480917000F7
:1004A000882381F580916D00992321F48F5F8093DB
:1004B0006D00D8C38823B9F091E0909370009093B9
:1004C0006E0010926F0010928F0010928E001092AA
:1004D0008D0010928C008FEF8093710090936C00D0
:1004E00010926600BFC380916A0090916B002FEF5D
:1004F0008F3F920709F4B6C3019690936B008093E7
:100500006A00B0C380916E00882309F4E4C0992387
:1005100049F080916C008F5F80936C00893F08F4F4
:1005200070C2ADC120916D00822F8F518B3048F485
:1005300080916C00863028F08B3018F464E570E010
:1005400081C0822F80558F3680F480916C00883274
:1005500028F0813628F465E670E074C0833128F015
:10056000813318F466E770E06DC0822F8C538031C0
:1005700048F480916C008C3328F08C3418F467E8D0
:1005800070E060C0822F8952883148F480916C00FD
:10059000893228F0813418F468E970E053C0822F62
:1005A0008D528D3048F480916C00863128F08E3168
:1005B00018F469EA70E046C0822F8B50863018F03C
:1005C0008B508B30C8F490916C00892F8B50863003
:1005D00018F08B508B3080F46AEB70E090936500DC
:1005E0002151203118F09151903120F51092640082
:1005F00080E48093660026C02350243060F49091FC
:100600006C00892F8751883018F09A50943018F474
:100610006BEC70E017C02A3088F490916C00892F41
:100620008650853018F08650893040F46CED70E0CB
:100630009093650081E08093640004C01092700084
:1006400060E070E080917000882331F082E790E0F4
:1006500041E150E00E9459061092710080918200A1
:10066000482F50E080FF21C0809172008731E9F06F
:100670008930D9F020916C0080917400821760F469
:1006800030E090E0880F991F821793072CF0569561
:100690004795842F809507C080916400882399F442
:1006A00056954795842F81700CC0809172008830D8
:1006B00051F480916C008751883010F481E001C0C2
:1006C00080E00E94480181E080936D0010926C00F0
:1006D00010926E0096C180916F00882309F484C146
:1006E000992309F4D3C04091710060917F004617AF
:1006F000B9F480918000813099F48091820080FD6E
:100700000CC090916D0080917700981708F4B7C0E5
:1007100080917800891708F4B2C01092800071C1EE
:1007200050916C005F5F50936C008091720081303B
:1007300021F55C3008F472C04B3008F46FC04F5F95
:1007400040937F004150242F30E02B503040322F17
:10075000222780918C0090918D00822B932B909377
:100760008D0080938C0080917D00480F4F5F4093F7
:100770007E008AE080936C0089C0873109F04EC00A
:1007800080918000882309F049C0252F30E08091B6
:10079000760090E0880F991F2817390734F04F3002
:1007A00020F081E180937F0053C0413108F429C1DA
:1007B00081E18093720010927B008BE080937C003B
:1007C00080937D0086E180937E0040918C00509163
:1007D0008D00440F551F440F551F20918E003091FE
:1007E0008F00C901A6E096958795AA95E1F7842B1D
:1007F000952B90938D0080938C002F733070F4E0D4
:10080000220F331FFA95E1F78091640090E0282BC6
:10081000392B30938F0020938E00F3C0809182009B
:1008200080FF1AC0252F30E08091760090E0880F7D
:10083000991F2817390784F0242F30E0862F90E085
:1008400002972817390744F080918000882321F40B
:1008500081E0809380001AC0593F08F4D2C0242F51
:1008600030E0862F90E001972817390741F48091F6
:100870008000882321F44F5F40937100C2C0109222
:10088000700010926D0010926C00BBC080918200CD
:10089000282F30E080FF47C090916D008091740058
:1008A0008917C0F436952795822F809581700E9414
:1008B00048018091820090E09695879581700E9412
:1008C00048018091820090E0969587958170809391
:1008D000640024C0809173009817E0F020916500B7
:1008E00080917600821780F430E090E0880F991FA5
:1008F000821793074CF090E080916400882309F4FC
:1009000091E09093640002C090916400892F0E944E
:10091000480104C01092700010926C0080916C002D
:100920008093650044C080917200833049F58091C6
:100930007100803129F580916D008550883008F074
:100940004DC090916C009C3360F09C3450F4109238
:100950006F00109291001092900081E180937100DD
:1009600041C08AE08093720080E180937D0080E244
:1009700080937E0080937F009E50903168F514C074
:1009800090916D00809173009817A0F08091740091
:10099000891780F020916C0080917500281750F025
:1009A00080917600821730F081E00E944801109219
:1009B0006F0018C080917700981780F080917800C0
:1009C000891760F090916C0080917900981730F051
:1009D00080917A00891710F080E0E7CF10927000C4
:1009E00010926C0081E005C0992331F480916D0074
:1009F0008F5F80936D0005C081E080936F008093CE
:100A00006C0080917000882309F42CC12091710042
:100A100080917F00281709F025C1809180008823EC
:100A200009F020C160918E0070918F00809160006C
:100A3000909161008617970769F480916A00909100
:100A40006B00805B944030F4809169008F5F8093ED
:100A5000690002C01092690050917200513031F467
:100A6000809169008150823098F40DC0553029F48E
:100A700080916900813061F406C05A3049F4809158
:100A8000690080FF05C010926B0010926A00AAC036
:100A900081E080938300583029F59B0120953095A3
:100AA000337080916700909168002817390799F496
:100AB00030938F0020938E005093840080918C009F
:100AC00090918D00909386008093850030938800EC
:100AD0002093870087C01092830070936800609312
:100AE000670080C0523029F5222309F04BC0809165
:100AF0006A0090916B008850974008F041C0809147
:100B000062009091630090938D0080938C0080919F
:100B100060009091610090938F0080938E0080918F
:100B20008B00816080938B0010926B0010926A00A2
:100B300029C0553039F580919200909193004091F1
:100B40009400282F2F7082958F702827892F8F70FF
:100B5000282792959F70292730E0842F90E08F708E
:100B600090702817390711F010928300809195003A
:100B7000482780919600482780919700481711F0E8
:100B8000109283005093840080918C0090918D008E
:100B90009093860080938500523029F490936300EF
:100BA000809362000FC0573069F42091660030E0F6
:100BB00080918E0090918F00822B932B90938F00C9
:100BC00080938E0080918E0090918F00909388008A
:100BD00080938700809190009091910090938A007B
:100BE0008093890080918300882391F140918E0049
:100BF00050918F008091600090916100841795075B
:100C0000B9F4209162003091630080918C00909142
:100C10008D002817390761F480916A0090916B006C
:100C20008A5C984028F480918B00816080938B00CF
:100C300080918C0090918D0090936300809362006E
:100C4000509361004093600010926B0010926A0014
:100C50001092700010928F0010928E0010926D0012
:100C600010926C008091830008951F920F920FB62E
:100C70000F9211242F933F934F935F936F937F9322
:100C80008F939F93AF93BF93EF93FF930E9447027D
:100C9000FF91EF91BF91AF919F918F917F916F9154
:100CA0005F914F913F912F910F900FBE0F901F902A
:100CB0001895FB01DC0102C005900D924150504097
:080CC000D8F70895F894FFCF66
:040CC800FFFFFFFF2C
:00000001FF
